:0400000041EF00F0DC
:100008005582FACF47F0FBCF48F0E9CF49F0EACF65
:100018004AF0E1CF4BF0E2CF4CF0D9CF4DF0DACF38
:100028004EF0F3CF4FF0F4CF50F0F6CF51F0F7CFBA
:1000380052F0F8CF53F0F5CF54F01DEC07F054C050
:10004800F5FF53C0F8FF52C0F7FF51C0F6FF50C08C
:10005800F4FF4FC0F3FF4EC0DAFF4DC0D9FF4CC0CC
:10006800E2FF4BC0E1FF4AC0EAFF49C0E9FF48C0D0
:0E007800FBFF47C0FAFF55921100FCEF10F09D
:1003000000CF034803A5037C0305010906A10105ED
:100310000719E029E7150025017501950881029567
:1003200001750881039505750105081901290591D5
:10033000029501750391039506750815002565055D
:1003400007190029658100C034034D00690063006E
:1003500072006F00630068006900700020005400A4
:100360006500630068006E006F006C006F0067003E
:100370007900200049006E0063002E000902290068
:10038000010100C03209040000020301010009213B
:1003900011010001223F0007058103080001070544
:1003A000010308000118034D00790020004B00658F
:1003B00000790062006F00610072006400120100A9
:1003C0000200000008D804550001000102000104E9
:1003D0000309040004D019C0A0F01AC0A1F01950FC
:1003E0000001A019F8E11A500001A119D8A4F3D70F
:1003F000A2C0BBF0A3C0BCF00001BB1FBC1FBB4B25
:10040000BC2B0001A0510001BB250001BE6F000103
:10041000A1510001BC210001BF6F0001BFAF1BD083
:10042000A2C0BBF0A3C0BCF00001BB1FBC1FBB4BF4
:10043000BC2B0001A0510001BB270001A15100010C
:10044000BC23FF0E0001BB250001BE6F7F0E000123
:10045000BC210001BF6F0001BFBF12D0890E000197
:10046000BE5D130E0001BF59D8A00AD0780E00015E
:10047000A0250001A26FEC0E0001A1210001A36FD5
:100480000F501010D8B406D00FC0D9FF10C0DAFF3B
:10049000DFBE0FD2400E0001B36F020E0001B46F39
:1004A000000E0001B66F000EB56F000E0001B86FB0
:1004B000080EB76F73EC10F0000E60EC09F0E80660
:1004C000D8A41AD01450D8A419D0010E146E80A646
:1004D00005D060C042F26CC040F204D078C042F255
:1004E00084C040F24E0E0001BB6FEB0EE82EFED72B
:1004F000BB2FFCD700F002D0000E146E010E60EC92
:1005000009F0E806D8A41AD01450D8A419D0010EC6
:10051000146E80A605D061C042F26DC040F204D0D6
:1005200079C042F285C040F24E0E0001BB6FEB0E67
:10053000E82EFED7BB2FFCD700F002D0000E146EC1
:10054000020E60EC09F0E806D8A41AD01450D8A422
:1005500019D0010E146E80A605D062C042F26EC0A2
:1005600040F204D07AC042F286C040F24E0E000142
:10057000BB6FEB0EE82EFED7BB2FFCD700F002D0EE
:10058000000E146E030E60EC09F0E806D8A41AD031
:100590001450D8A419D0010E146E80A605D063C0E3
:1005A00042F26FC040F204D07BC042F287C040F2FA
:1005B0004E0E0001BB6FEB0EE82EFED7BB2FFCD713
:1005C00000F002D0000E146E040E60EC09F0E80694
:1005D000D8A41AD01450D8A419D0010E146E80A635
:1005E00005D064C042F270C040F204D07CC042F238
:1005F00088C040F24E0E0001BB6FEB0EE82EFED716
:10060000BB2FFCD700F002D0000E146E050E60EC7C
:1006100009F0E806D8A41AD01450D8A419D0010EB5
:10062000146E80A605D065C042F271C040F204D0BD
:100630007DC042F289C040F24E0E0001BB6FEB0E4E
:10064000E82EFED7BB2FFCD700F002D0000E146EB0
:10065000060E60EC09F0E806D8A41AD01450D8A40D
:1006600019D0010E146E80A605D066C042F272C089
:1006700040F204D07EC042F28AC040F24E0E000129
:10068000BB6FEB0EE82EFED7BB2FFCD700F002D0DD
:10069000000E146E070E60EC09F0E806D8A41AD01C
:1006A0001450D8A419D0010E146E80A605D067C0CE
:1006B00042F273C040F204D07FC042F28BC040F2DD
:1006C0004E0E0001BB6FEB0EE82EFED7BB2FFCD702
:1006D00000F002D0000E146E080E60EC09F0E8067F
:1006E000D8A41AD01450D8A419D0010E146E80A624
:1006F00005D068C042F274C040F204D080C042F21B
:100700008CC040F24E0E0001BB6FEB0EE82EFED700
:10071000BB2FFCD700F002D0000E146E090E60EC67
:1007200009F0E806D8A41AD01450D8A419D0010EA4
:10073000146E80A605D069C042F275C040F204D0A4
:1007400081C042F28DC040F24E0E0001BB6FEB0E35
:10075000E82EFED7BB2FFCD700F002D0000E146E9F
:100760000A0E60EC09F0E806D8A41AD01450D8A4F8
:1007700019D0010E146E80A605D06AC042F276C070
:1007800040F204D082C042F28EC040F24E0E000110
:10079000BB6FEB0EE82EFED7BB2FFCD700F002D0CC
:1007A000000E146E0B0E60EC09F0E806D8A41AD007
:1007B0001450D8A419D0010E146E80A605D06BC0B9
:1007C00042F277C040F204D083C042F28FC040F2C0
:1007D0004E0E0001BB6FEB0EE82EFED7BB2FFCD7F1
:1007E00000F002D0000E146E000E0001BD6F000E6E
:1007F0000001C06F070E0001C06501D01DD00001CF
:10080000C051010D400EF324D96E020EF420DA6EB1
:100810000001C051010D900EF324E16E000EF42092
:10082000E26EDE50E618D8B404D0010E0001BD6FB0
:1008300003D00001C02BDED70001A4510001A51197
:10084000D8B413D00001A4510001BE5D0001BF5116
:10085000800A0001BB6F0001A551800A0001BB594D
:10086000D8A003D0010E0001BD6F0001BD05D8A4C2
:1008700020D022EE40F010EE90F0070EDBCFE3FF29
:10088000E806FCE2010E0001B36F400E0001B46FF8
:10089000020E0001B56F080E0001B66F010E99EC53
:1008A0000BF0B3C00FF0B4C010F0A0C0A2F0A1C014
:1008B000A3F011501210D8B406D011C0D9FF12C045
:1008C000DAFFDFBE12005AEC11F0000E0001B36F28
:1008D000480E0001B46F020E0001B56F080E000152
:1008E000B66F010E99EC0BF0B3C011F0B4C012F06A
:1008F000120002012205D8A411D0020120511F0BC1
:100900000009D8A40BD00C8E030E02012119D8A423
:1009100002D0010E01D0000E0001A96F0201225188
:10092000D8A41200020120511F0B020AD8A4120001
:10093000020124510F0B0009D8B412000201245106
:100940000F0B3F6E020E3F601200200E2418D8A439
:1009500012000C8E020124BF1BD0020124510F0B88
:100960003F6E3F50020D9C0EF324D96E000EF42012
:10097000DA6EDECF43F0DDCF44F0020124510F0BDD
:100980003F6E3F50010D1D0EF324D96E000E1AD09C
:10099000020124510F0B3F6E3F50020D150EF32440
:1009A000D96E000EF420DA6EDECF43F0DDCF44F0D6
:1009B000020124510F0B3F6E3F50010D1B0EF3241B
:1009C000D96E000EF420DA6EDF50426E42B002D0D3
:1009D000439401D04384020124BF0BD0020124516F
:1009E0000F0B3F6E3F50020D9C0EF324D96E000E8C
:1009F0000AD0020124510F0B3F6E3F50020D150E1D
:100A0000F324D96E000EF420DA6E43C0DEFF44C03A
:100A1000DDFF030E02012119D8A42ED043C0D9FF57
:100A200044C0DAFFDFAE1BD0020124BF0BD00201AD
:100A300024510F0B3F6E3F50010D1D0EF324D96E54
:100A4000000E0AD0020124510F0B3F6E3F50010DE2
:100A50001B0EF324D96E000EF420DA6EDF8243C041
:100A6000D9FF44C0DAFF000EDB8443C0D9FF44C085
:100A7000DAFF000EDB8E1200040E431A43C0D9FFCA
:100A800044C0DAFFDFAE1BD043C0D9FF44C0DAFF59
:100A90007F0EDF1643C0D9FF44C0DAFF000EDB8CA7
:100AA000000E386E050E376E43C039F044C03AF080
:100AB000000E3C6E020E3B6E0DEC0FF006D043C0F4
:100AC000D9FF44C0DAFF000EDB8C040E431A42B299
:100AD00006D043C0D9FF44C0DAFFDFAE30D00201F8
:100AE00024BF0BD0020124510F0B3F6E3F50010D6C
:100AF0001D0EF324D96E000E0AD0020124510F0BF3
:100B00003F6E3F50010D1B0EF324D96E000EF420F2
:100B1000DA6EDF9243C0D9FF44C0DAFF3B0EDF1626
:100B2000000E386E050E376E43C039F044C03AF0FF
:100B3000000E3C6E020E3B6E0DEC0FF006D043C073
:100B4000D9FF44C0DAFF3B0EDF16020124510F0B20
:100B50003F6E3F50010D530EF324406E0F0EF420F4
:100B6000416E40C0D9FF41C0DAFFFE0EDF16120011
:100B7000A094000E0F015F6F000E626E000E0F0159
:100B8000536F540E0001B36F0F0E0001B46F000ECF
:100B90000001B66F000EB56F000E0001B86F010EB8
:100BA000B76F73EC10F0160E616E9F0E0F015B6F46
:100BB0007B0E606E000E0001BB6F070E0001BB656F
:100BC00001D010D00001BB51040D000EF324D96EEA
:100BD000020EF420DA6EDE6ADE6ADE6ADD6A000189
:100BE000BB2BEBD7648C000E0F015C6F6498649C88
:100BF0006296000E0C6E000E046E000E066E000E65
:100C0000056E62B6F5D7010E0001AD6F010E000151
:100C1000AE6F000E0001AB6F000E0001AC6F000E56
:100C20000001AA6F000E0001BB6F010E0001BB6541
:100C300001D033D00001BB51020D150EF324D96E43
:100C4000000EF420DA6E000EDE6E000EDD6E000186
:100C5000BB51020D9C0EF324D96E000EF420DA6E07
:100C6000000EDE6E000EDD6E0001BB51010D1B0E8D
:100C7000F324D96E000EF420DA6E000EDF6E000150
:100C8000BB51010D1D0EF324D96E000EF420DA6E57
:100C9000000EDF6E0001BB2BC8D7080E156E020ECA
:100CA000166E160E0F01536F020E0201036F200E17
:100CB000026F080E0201016F040E0201006F0201B3
:100CC000008F000E286E000E0001986F000E996FC5
:100CD000000E9A6F000E9B6F000E0001B06F000EA9
:100CE000246E1200A094000E0F015F6F000E626E62
:100CF000000E0F01536F540E2B6E0F0E2C6E000E54
:100D00002E6E000E2D6E000E306E010E2F6EBEEC9C
:100D100010F0160E616E9F0E0F015B6F7B0E606E02
:100D2000000E336E070E336401D00ED03350040D25
:100D3000000EF324D96E020EF420DA6EDE6ADE6A4B
:100D4000DE6ADD6A332AEED7648C000E0F015C6F19
:100D50006498649C6296000E0C6E000E046E000E89
:100D6000066E000E056E62B6F5D7010E0001AD6F7E
:100D7000010E0001AE6F000E0001AB6F000E00010E
:100D8000AC6F000E0001AA6F000E336E010E3364CB
:100D900001D02ED03350020D150EF324D96E000E63
:100DA000F420DA6E000EDE6E000EDD6E3350020DA2
:100DB0009C0EF324D96E000EF420DA6E000EDE6E67
:100DC000000EDD6E3350010D1B0EF324D96E000EA4
:100DD000F420DA6E000EDF6E3350010D1D0EF32489
:100DE000D96E000EF420DA6E000EDF6E332ACED7F5
:100DF000080E156E020E166E160E0F01536F020EC0
:100E00000201036F200E026F080E0201016F040E33
:100E10000201006F0201008F000E286E000E00011B
:100E2000986F000E996F000E9A6F000E9B6F000E68
:100E30000001B06F000E246E12002404D8B464BA0E
:100E400006D0000E626E60806088020E246E62B46E
:100E500060A403D0629458EC10F064A202D0A19474
:100E6000120062B060A006D072EC06F0A084040EFE
:100E7000246E629062B860A802D0A6EC10F062AC5A
:100E80001ED060AC0ED0000E386E730E376E000EA2
:100E9000396E000E3A6E000E3C6E010E3B6E0DEC8C
:100EA0000FF0629CE8EC10F00001AF51D8B402D012
:100EB0000001AF070001AF51D8B405EC0CF062BAE5
:100EC00060AA02D0F7EC0FF062B260A210D07F0EE1
:100ED000386E3768000E396E000E3A6E000E3C6EAA
:100EE000010E3B6E0DEC0FF0000E0F015F6F040E54
:100EF000246002D0A194120060A638D0000E466E85
:100F0000030E466401D032D062A630D063CF2AF0FF
:100F10002A30E832E8320F0B266E62962AB407D0E8
:100F20002650010D1D0EF324D96E000E06D026505A
:100F3000010D1B0EF324D96E000EF420DA6EDF7063
:100F40002650D8A403D07CEC0EF00ED0000E386EE4
:100F5000720E376E2A0E396E000E3A6E000E3C6E1F
:100F6000000E3B6E0DEC0FF0462ACAD7A19412007A
:100F700020EE01F01F50D9262050DA22DF502C6ECF
:100F80002C50055C000E0658D8A005C02CF02C5043
:100F9000055E000E065A000E2B6E11D02B50010D6F
:100FA000280EF324D96E020EF420DA6E01C0E1FFA0
:100FB00002C0E2FFDFCFE7FF014A022A2B2A2C50B2
:100FC0002B5CD8A0EBD705500610D8B432D020EE59
:100FD00001F02150D9262250DA22080EDF6E20EED1
:100FE00002F02150D9262250DA22280EDE6E020E9F
:100FF000DD6E1FC0D9FF20C0DAFFDFBC0DD021C0DD
:10100000D9FF22C0DAFF480EDF6E21C0D9FF22C00F
:10101000DAFF000EDB8E120021C0D9FF22C0DAFFFA
:10102000080EDF6E21C0D9FF22C0DAFF000EDB8E72
:10103000120020EE01F02150D9262250DA22080EAB
:10104000DF6E20EE02F02150D9262250DA22200E47
:10105000DE6E020EDD6E21C0D9FF22C0DAFF040E63
:10106000DF6E21C0D9FF22C0DAFF000EDB8E0750F1
:101070000810D8B40ED020EE07F001D80AD0050031
:10108000FA6EDE50FD6EDE50FE6EF850FF6EFA50C6
:101090001200049E2350D8A4120005EC0CF012009C
:1010A000800E02012019D8A41200C00E0C6E7CD054
:1010B000BD0E096E030E0A6E000E0E6E120E0D6E40
:1010C000120002012251D8A43ED002012251020D89
:1010D000070EF324F66E030EF420F76E0900F5CF29
:1010E00009F00A00F5CF0AF0020E09242B6E000E5B
:1010F0000A202C6E2BC0F6FF2CC0F7FFF86A020EF8
:10110000F76403D00800F55005D0F6CFE1FFF7CF24
:10111000E2FFE7500D6E030E09242B6E000E0A202D
:101120002C6E2BC0F6FF2CC0F7FFF86A020EF76496
:1011300003D00800F55005D0F6CFE1FFF7CFE2FF6E
:10114000E7500E6E1200000E0C6E1200030E02012C
:10115000226124D002012251020D010EF324F66E09
:10116000030EF420F76E0900F5CF09F00A00F5CF61
:101170000AF009C0F6FF0AC0F7FFF86A020EF7642A
:1011800003D00800F55005D0F6CFE1FFF7CFE2FF1E
:10119000E7502B6E2B500D6E0E6A1200000E0C6E77
:1011A0001200000E0C6E120002012351010AD8B485
:1011B0007FD7030AD8B485D7010AD8B4C7D7F1D7E7
:1011C00064980CBE3BD004AE0ED0020E256E00011A
:1011D000AC51D8B4E4EC0DF0000E0001AE6F000E7F
:1011E0000001AD6F120020EE01F02150D9262250EF
:1011F000DA22080EDF6E20EE02F02150D9262250AE
:10120000DA22200EDE6E020EDD6E21C0D9FF22C072
:10121000DAFF0C0EDF6E21C0D9FF22C0DAFF000E0C
:10122000DB8E15C0D9FF16C0DAFF040EDF6E15C0C5
:10123000D9FF16C0DAFF000EDB8E1200020120AFCC
:1012400013D0010E256E0001AB51D8B4E4EC0DF0C3
:10125000000E0001AE6F000E0001AD6F2350D8A448
:10126000120005EC0CF01200020E256E20EE01F0CB
:101270002150D9262250DA22080EDF6E20EE02F02D
:101280002150D9262250DA22200EDE6E020EDD6EAB
:1012900021C0D9FF22C0DAFF040EDF6E21C0D9FFC2
:1012A00022C0DAFF000EDB8E000E0001AE6F000ED2
:1012B0000001AD6F2350D8A4120005EC0CF0120011
:1012C0000001B36F4AD082BA02D0010E1200000EA4
:1012D000120082B802D0010E1200000E120082B677
:1012E00002D0010E1200000E120082BC02D0010ECC
:1012F0001200000E120082BE02D0010E1200000E7B
:10130000120081AE02D0010E1200000E120082B057
:1013100002D0010E1200000E120082B202D0010EA5
:101320001200000E120082B402D0010E1200000E54
:10133000120081A802D0010E1200000E120081AA34
:1013400002D0010E1200000E120081AC02D0010E7C
:101350001200000E1200000E12000001B351000A2C
:10136000D8B4B1D7010AD8B4B4D7030AD8B4B7D720
:10137000010AD8B4BAD7070AD8B4BDD7010AD8B47D
:10138000C0D7030AD8B4C3D7010AD8B4C6D70F0A46
:10139000D8B4C9D7010AD8B4CCD7030AD8B4CFD7A8
:1013A000010AD8B4D2D7060AD8B4D5D7000E120095
:1013B000020120511F0BE806D8A41200020124519B
:1013C000D8A41200060E02012119D8B418D020D0DA
:1013D0002804D8A41DD08E0E096E030E0A6E000ECE
:1013E0000E6E090E0AD0C00E0C6E12D0090E096ED8
:1013F000030E0A6E000E0E6E3F0E0D6EF4D7020144
:101400002351210AD8B4E4D7030AD8B4EFD7010A8C
:1014100002012039E832030BE806D8A4120029D0D3
:1014200033EC11F01200B20E096E000E0A6E000EBF
:101430000E6E010E0D6EC10E0C6E1200800E0C6E43
:1014400023C2B2F0B2C02BF00201225141EC11F0E4
:101450001200B10E096E000E0A6E000E0E6E010E25
:101460000D6E810E0C6E1200800E0C6E22C2B1F059
:10147000120002012151010AD8B41200030AD8B4A3
:10148000D2D7010AD8B4E5D70A0AD8B4C9D7030A13
:10149000D8B4D4D7010AD8A41200E6D715C0D9FF12
:1014A00016C0DAFF000EDFBC010E2C6E040E151AFA
:1014B000080E2418D8A40DD0020122517F0B0F0171
:1014C0005C6F0F015C51D8B402D0100E01D0040E35
:1014D000246E2504D8A43AD020EE02F01550D92667
:1014E0001650DA22280EDE6E020EDD6E6CEC0CF069
:1014F000020E2718D8A40DD015C0D9FF16C0DAFFE8
:10150000040EDF6E15C0D9FF16C0DAFF000EDB8EA9
:1015100012002C50D8A40DD015C0D9FF16C0DAFF88
:10152000480EDF6E15C0D9FF16C0DAFF000EDB8E45
:10153000120015C0D9FF16C0DAFF080EDF6E15C005
:10154000D9FF16C0DAFF000EDB8E120004AE13D0F6
:1015500007500810D8B40ED020EE07F001D80AD0FA
:101560000500FA6EDE50FD6EDE50FE6EF850FF6E26
:10157000FA501200049E000E256E12000C8E540EBE
:101580002B6E0F0E2C6E000E2E6E000E2D6E000EAA
:10159000306E010E2F6EBEEC10F0000E2B6E020EA0
:1015A0002C6E000E2E6E000E2D6E000E306E200E74
:1015B0002F6EBEEC10F0648C000E3F6E010E3F6487
:1015C00001D016D03F50010D1B0EF324D96E000E32
:1015D000F420DA6E000EDF6E3F50010D1D0EF32475
:1015E000D96E000EF420DA6E000EDF6E3F2AE6D7C9
:1015F000290E2B6E000E2C6E000E2E6E000E2D6E20
:10160000000E306E010E2F6EBEEC10F0649C080EC2
:10161000156E020E166E000E1F6E020E206E1FC09B
:1016200021F020C022F022C228F02850D8A403D0F4
:10163000100E246E1200000E386E010E376E280E4A
:10164000396E000E3A6E000E3C6E010E3B6E0DECD4
:101650000FF0200E246E120002012039E832030B35
:101660000009D8A4120043D00C8E080E246E12007C
:1016700050EC08F01200BEEC0AF01200280E096EC1
:10168000000E0A6E0C80010E0D6E0C8E12008CEC9A
:101690000DF0120079EC04F0120002012451010D4A
:1016A000290EF324096E000EF4200A6E0C80010E40
:1016B0000D6E0C8E12000C8E02012451010D290EAC
:1016C000F324D96E000EF420DA6E22C2DFFF12007E
:1016D000000E386E020E376E000E396E000E3A6E36
:1016E000000E3C6E000E3B6E0DEC0FF0120002017E
:1016F0002151000AD8B4CBD7010AD8B4CBD7020AFB
:10170000D8B4C8D7060AD8B4AFD7030AD8B4B0D76C
:10171000010AD8B4DDD70F0AD8B4B0D7010AD8B4BB
:10172000AAD7030AD8B4B9D7010AD8B4C4D7070ACC
:1017300012000001B76F0001B3510001D8B408D006
:101740000001B751020D150EF324D96E000E07D01B
:101750000001B751020D9C0EF324D96E000EF42047
:10176000DA6EDECFB8F0DDCFB9F00001B85100017C
:10177000B911D8A407D0000E0001B36F000E00010C
:10178000B46F1200000120EE02F0B851D926B95111
:10179000DA22B4C0DEFFB5C0DDFF000120EE01F0AB
:1017A000B851D926B951DA22B6C0DFFFB8C0D9FF87
:1017B000B9C0DAFF400EDF16B8C0D9FFB9C0DAFFF2
:1017C000000EDB86B8C0D9FFB9C0DAFF000EDB8E91
:1017D0000001B3510001D8B408D00001B751020D87
:1017E000150EF324D96E000E07D00001B751020D7B
:1017F0009C0EF324D96E000EF420DA6E040EDF1A6C
:10180000B8C0B3F0B9C0B4F012000001AD51D8A413
:101810001200010E0001AD6F0001AE51D8A41200FC
:10182000010E0001AE6F020E2518D8A415D020EECF
:1018300001F01550D9261650DA22000EDF6E15C0C1
:10184000D9FF16C0DAFF480EDF6E15C0D9FF16C0EB
:10185000DAFF000EDB8E12002504D8A41200000E61
:101860000001A86F20EE01F01F50D9262050DA2287
:10187000080EDF6E20EE02F01F50D9262050DA222B
:10188000200EDE6E020EDD6E1FC0D9FF20C0DAFF13
:10189000040EDF6E1FC0D9FF20C0DAFF000EDB8E02
:1018A000010E0001A86F20EE01F02150D926225030
:1018B000DA22080EDF6E20EE02F02150D9262250E7
:1018C000DA22200EDE6E020EDD6E21C0D9FF22C0AC
:1018D000DAFF800EDF6E1200080E2B6E0E5010E144
:1018E000080E0D5CD8B00CD00DC02BF02750D8A43A
:1018F00002D0010E04D02704D8A402D0020E276E15
:101900002B500D5E000E0E5A20EE01F01550D92618
:101910001650DA222BC0DFFF280E0001A66F020E40
:101920000001A76F0CA01CD03AD009C0F6FF0AC076
:10193000F7FFF86AA6C0D9FFA7C0DAFF020EF76466
:1019400003D00800F55005D0F6CFE1FFF7CFE2FF56
:10195000E750DF6E094A0A2A0001A64BA72B2B0687
:101960002B50D8B41200E1D709C0F6FF0AC0F7FF28
:10197000F86AA6C0D9FFA7C0DAFF020EF76403D049
:101980000800F55005D0F6CFE1FFF7CFE2FFE750B2
:10199000DF6E094A0A2A0001A64BA72B2B062B5003
:1019A000D8B41200E1D72F6E2B50D8B407D02F50E7
:1019B000020D150EF324D96E000E06D02F50020D25
:1019C0009C0EF324D96E000EF420DA6EDECF30F0D8
:1019D000DDCF31F030503110D8A405D0000E2B6E81
:1019E000000E2C6E120020EE02F03050D92631503D
:1019F000DA222CC0DEFF2DC0DDFF20EE01F03050DA
:101A0000D9263150DA222EC0DFFF30C0D9FF31C0D5
:101A1000DAFF400EDF1630C0D9FF31C0DAFF000E0A
:101A2000DB8630C0D9FF31C0DAFF000EDB8E2B50D1
:101A3000D8B407D02F50020D150EF324D96E000E26
:101A400006D02F50020D9C0EF324D96E000EF42008
:101A5000DA6E040EDF1A30C02BF031C02CF0120009
:101A6000000E0001B56F0B0E0001B56501D026D048
:101A70000001B551020D600EF324D96E000EF42062
:101A8000DA6E000EDF6E0001B5510001B36FB46B6A
:101A9000D8900001B337B437010E0001B327000E10
:101AA000B4236C0E0001B325D96E000E0001B421E1
:101AB000DA6E000EDF6E0001B52BD5D70C0E0001DB
:101AC000B56F170E0001B56501D012000001B551C8
:101AD000020D780EF324D96E000EF420DA6E000E9B
:101AE000DF6E0001B5510001B36FB46BD8900001F7
:101AF000B337B437010E0001B327000EB423840EB0
:101B00000001B325D96E000E0001B421DA6E000E7B
:101B1000DF6E0001B52BD5D7000E0201286F000E35
:101B20000201296F3BD00C8E020128810001A9051A
:101B3000D8A440D0020128833DD00C8E3BD00C8E1F
:101B4000020124BF0BD0020124510F0B2B6E2B502E
:101B5000020D9C0EF324D96E000E0AD0020124510E
:101B60000F0B2B6E2B50020D150EF324D96E000EA9
:101B7000F420DA6EDECF2CF0DDCF2DF02CC0D9FFB3
:101B80002DC0DAFFDFAE16D02CC0D9FF2DC0DAFF92
:101B9000DFA410D0010E0201286F0CD002012051E9
:101BA0001F0B000AD8B4BFD7010AD8B4C6D7030A9E
:101BB000D8B4C5D70CAE1200280E096E020E0A6EFC
:101BC0000C80020E0D6E1200000E0001AB6F000EB5
:101BD0000001AC6F020E2518D8A41FD020EE01F032
:101BE0002150D9262250DA22080EDF6E20EE02F0B4
:101BF0002150D9262250DA22280EDE6E020EDD6E2A
:101C000021C0D9FF22C0DAFF480EDF6E21C0D9FF04
:101C100022C0DAFF000EDB8E12000D500201265D9D
:101C20000E5002012759D8B004D026C20DF027C2A9
:101C30000EF06CEC0CF020EE02F01550D926165088
:101C4000DA22280EDE6E020EDD6E15C0D9FF16C038
:101C5000DAFF480EDF6E15C0D9FF16C0DAFF000E9E
:101C6000DB8E1200306E000E316E020E326E2B5083
:101C70002C6E2D6AD8902C362D3630502E6E2F6A51
:101C8000D8902E362F36D8902E362F362C502E2622
:101C90002D502F22D8902E362F36D8902E362F3614
:101CA0002E5031262F50322231C0D9FF32C0DAFFF8
:101CB000DF9E2B50D8A407D03050020D9C0EF32489
:101CC000D96E000E06D03050020D150EF324D96ED9
:101CD000000EF420DA6E31C0DEFF32C0DDFF31C00D
:101CE000D9FF32C0DAFFDF9C20EE04F03150D92654
:101CF0003250DA22DF8C12002D0E0001AF6F2AC0A5
:101D000045F0FD0E4516D8A438D02AC045F0D8902D
:101D100045323F0E45164550040D000EF3241F6E4C
:101D2000020EF420206E1FC021F020C022F0040E0D
:101D3000211A1FC0D9FF20C0DAFFDF30E8320F0BB5
:101D40000D0AD8A417D0200E2B6E020E2C6E20EE9A
:101D500002F01F50D9262050DA22DECF2DF0DDCF41
:101D60002EF0000E306E080E2F6E1AEC10F053ECB1
:101D70000FF01200C7EC0FF012002A50FD0B040AFE
:101D8000D8A412004EEC0AF01200000E2D6E0B0EBD
:101D90002D6401D01ED02D50020D600EF324D96E9B
:101DA000000EF420DA6E000EDF6E2D502B6E2C6AC2
:101DB000D8902B362C36010E2B26000E2C226C0EC2
:101DC0002B24D96E000E2C20DA6E000EDF6E2D2A29
:101DD000DED70C0E2D6E170E2D6401D012002D5083
:101DE000020D780EF324D96E000EF420DA6E000E88
:101DF000DF6E2D502B6E2C6AD8902B362C36010EB0
:101E00002B26000E2C22840E2B24D96E000E2C20A3
:101E1000DA6E000EDF6E2D2ADED71CD0192804E101
:101E20007F0E1A18D8B403D0194A1A2A1200000ECD
:101E30001A6E000E196E1200010E22EC11F0120043
:101E4000020E22EC11F0120097EC0FF01200D8EC09
:101E500009F0120037C03DF038C03EF03E50000A95
:101E6000D8B404D07F0AD8A412001AD03D50010A79
:101E7000D8B4EAD7030AD8B41200010AD8B4E7D715
:101E8000060AD8B41200770AD8B41200010AD8B4EE
:101E9000C5D7070AD8B4D4D7010AD8A41200CCD722
:101EA0003D50FF0A1200000E276E000E236E000E3A
:101EB0000001AB6F000E0001AC6F000E0001A86FB7
:101EC000000E256E15C0D9FF16C0DAFF7F0EDF1693
:101ED000040E151A15C0D9FF16C0DAFF7F0EDF16E3
:101EE000040E151A21C0D9FF22C0DAFF7F0EDF16BB
:101EF000000E0C6E000E0E6E000E0D6E000E046EC7
:101F0000000E066E000E056E2CEC0BF0000E386E07
:101F1000030E376E000E396E000E3A6E000E3C6EE8
:101F2000000E3B6E0DEC0FF0E0EC08F01200000E1E
:101F30000F6E000E106E040E136E000E146E010E66
:101F40000001A56FF40EA46F04D019C0A2F01AC04E
:101F5000A3F019500001A219F8E11A500001A319C9
:101F6000D8A4F3D71E0E336E010E3AEC10F0000E1B
:101F70002B6E480E2C6E020E2D6E080E2E6E010E6C
:101F8000D3EC0CF02BC011F02CC012F01200020E9A
:101F90002518D8A403D0B8EC07F01200000E256E67
:101FA0000001A851D8A41FD020EE01F02150D9265D
:101FB0002250DA22080EDF6E20EE02F02150D926E0
:101FC0002250DA22200EDE6E020EDD6E21C0D9FF15
:101FD00022C0DAFF0C0EDF6E21C0D9FF22C0DAFF6B
:101FE000000EDB8E1200000E0001A86F12000F0120
:101FF00053A11ED01FC0D9FF20C0DAFF800EDE180B
:10200000D8A414D015C0D9FF16C0DAFF840EDE188C
:10201000D8A40CD01FC0D9FF20C0DAFF0C0EDF6E91
:102020001FC0D9FF20C0DAFF000EDB8E0F015391D5
:10203000629A12002DC033F02EC034F02BC031F064
:102040002CC032F00ED033C0D9FF34C0DAFF31C01B
:10205000E1FF32C0E2FFDFCFE7FF334A342A314AE3
:10206000322A2F06D8A030062F28EDE13028D8B428
:102070001200E9D7366E33A405D0000E2B6E365011
:1020800032EC0EF033A205D0010E2B6E365032EC3E
:102090000EF03650010D530EF324346E0F0EF42063
:1020A000356E34C0D9FF35C0DAFF33C0DFFF120010
:1020B000000E0001AA6F000E386E740E376E000E0F
:1020C000396E000E3A6E000E3C6E000E3B6E0DEC4B
:1020D0000FF06492609401D0629462B4FDD7000E58
:1020E0000001B06F1200B3C0B9F0B4C0BAF009D0AB
:1020F000B9C0D9FFBAC0DAFFB5C0DFFF0001B94BE4
:10210000BA2B0001B707D8A0B8070001B729F0E142
:102110000001B829D8B41200EBD72450D8A412007B
:10212000000E646E000E606E160E616E9F0E0F0143
:102130005B6F7B0E606ED08EA284A084F28E01D085
:10214000648664A6FDD7010E246E12006084629836
:102150006482010E0001AA6F000E0001B06F000E34
:10216000386E750E376E000E396E000E3A6E000E28
:102170003C6E000E3B6E0DEC0FF012002BC031F0E8
:102180002CC032F008D031C0D9FF32C0DAFF2DC0E8
:10219000DFFF314A322A2F06D8A030062F28F3E17C
:1021A0003028D8B41200EFD7000E0FEC11F0B8ECC5
:1021B00005F08DEC10F0200E246001D0FCD764A255
:1021C00004D0000E60EC09F0F6D7EAEC01F0F3D78A
:1021D000010E00019827000E99239A239B230001EA
:1021E000AA51D8A412000001B02B0001B051D8A40C
:1021F00012000001B069120000EE60F0530EEE6AAA
:10220000E806FDE100EE01F02A0EEE6AE806FDE1C7
:1022100055905592000EF86E0001D4EF10F00001B9
:10222000B66F06D0000E4AEC11F030EC0DF0120043
:102230000001B651000AD8B4F5D7010AD8B412008B
:10224000030A12002E6E06D0000E52EC11F0C5ECFF
:102250000EF012002E50000AD8B4F6D7010AD8B4F6
:102260001200030A1200280E016E020E026E000E0A
:10227000066E080E056EBA0E076E220E086E048EEC
:1022800012002C6E2C50D8A412002BC0A4F0000118
:10229000A56B1200000E7E6E000E7F6EF00E936E28
:1022A00094681200000E7E6E000E7F6EF00E936E2C
:0C22B00094681200020148511200120054
:020000040020DA
:08000000FFFFFFFFFFFFFFFF00
:020000040030CA
:0E0000000032011EFF0081FF03C003E0034039
:0200000400F00A
:100000002400250026002100220023001E001F00DE
:10001000200027002A0028001B08060819082100D4
:10002000220023001E001F00200027002A002800B5
:00000001FF
